:060000000A128A1100291A
:100200001321272103138312031383120313831271
:1002100006182E218618352186194B21061A5221DF
:1002200006195D21082983160317880189018316A1
:100230000313850187010614861406158615061614
:1002400088018312031385018701880108000313C5
:1002500083160F178F160F120F140800412106186E
:100260002F29850A051A850108004121861836299B
:10027000850346210800C830A1004121A10B3D297A
:100280000800A530A000A00B432908000512851224
:10029000051385130800412186194C29870A071A7E
:1002A000870108004121061A5329870358210800B5
:1002B000071287120713871308004121061903014B
:0C02C000050807078800881A880108005C
:04400E00C430FF3F7C
:00000001FF
